{
  "contractName": "Artonomous",
  "abi": [
    {
      "constant": true,
      "inputs": [],
      "name": "artonomousStaking",
      "outputs": [
        {
          "name": "",
          "type": "address"
        }
      ],
      "payable": false,
      "stateMutability": "view",
      "type": "function"
    },
    {
      "constant": true,
      "inputs": [],
      "name": "beneficiary",
      "outputs": [
        {
          "name": "",
          "type": "address"
        }
      ],
      "payable": false,
      "stateMutability": "view",
      "type": "function"
    },
    {
      "constant": true,
      "inputs": [],
      "name": "currentAuction",
      "outputs": [
        {
          "name": "blockNumber",
          "type": "uint256"
        },
        {
          "name": "endTime",
          "type": "uint256"
        },
        {
          "name": "startingPrice",
          "type": "uint256"
        }
      ],
      "payable": false,
      "stateMutability": "view",
      "type": "function"
    },
    {
      "constant": true,
      "inputs": [],
      "name": "pieceToken",
      "outputs": [
        {
          "name": "",
          "type": "address"
        }
      ],
      "payable": false,
      "stateMutability": "view",
      "type": "function"
    },
    {
      "constant": true,
      "inputs": [],
      "name": "AUCTION_LENGTH",
      "outputs": [
        {
          "name": "",
          "type": "uint256"
        }
      ],
      "payable": false,
      "stateMutability": "view",
      "type": "function"
    },
    {
      "inputs": [
        {
          "name": "stakingAddr",
          "type": "address"
        },
        {
          "name": "beneficiaryAddr",
          "type": "address"
        }
      ],
      "payable": false,
      "stateMutability": "nonpayable",
      "type": "constructor"
    },
    {
      "anonymous": false,
      "inputs": [
        {
          "indexed": true,
          "name": "blockNumber",
          "type": "uint256"
        },
        {
          "indexed": false,
          "name": "generatorHashUsed",
          "type": "string"
        }
      ],
      "name": "ArtonomousAuctionStarted",
      "type": "event"
    },
    {
      "anonymous": false,
      "inputs": [
        {
          "indexed": true,
          "name": "buyer",
          "type": "address"
        },
        {
          "indexed": true,
          "name": "blockNumber",
          "type": "uint256"
        },
        {
          "indexed": false,
          "name": "price",
          "type": "uint256"
        }
      ],
      "name": "ArtonomousArtBought",
      "type": "event"
    },
    {
      "anonymous": false,
      "inputs": [
        {
          "indexed": true,
          "name": "claimant",
          "type": "address"
        },
        {
          "indexed": true,
          "name": "blockNumber",
          "type": "uint256"
        }
      ],
      "name": "ArtonomousArtClaimed",
      "type": "event"
    },
    {
      "constant": false,
      "inputs": [],
      "name": "buyArt",
      "outputs": [],
      "payable": true,
      "stateMutability": "payable",
      "type": "function"
    },
    {
      "constant": false,
      "inputs": [],
      "name": "claimArt",
      "outputs": [],
      "payable": false,
      "stateMutability": "nonpayable",
      "type": "function"
    }
  ],
  "bytecode": "0x6080604052620151806003553480156200001857600080fd5b5060405160408062002f078339810180604052810190808051906020019092919080519060200190929190505050816000806101000a81548173ffffffffffffffffffffffffffffffffffffffff021916908373ffffffffffffffffffffffffffffffffffffffff1602179055506200009062000554565b808060200180602001838103835260108152602001807f6172746f6e6f6d6f75732d746f6b656e00000000000000000000000000000000815250602001838103825260048152602001807f4152544f0000000000000000000000000000000000000000000000000000000081525060200192505050604051809103906000f08015801562000122573d6000803e3d6000fd5b50600160006101000a81548173ffffffffffffffffffffffffffffffffffffffff021916908373ffffffffffffffffffffffffffffffffffffffff16021790555080600260006101000a81548173ffffffffffffffffffffffffffffffffffffffff021916908373ffffffffffffffffffffffffffffffffffffffff160217905550620001bd620001c5640100000000026401000000009004565b505062000565565b60606000600460000154141515620001dc57600080fd5b6000809054906101000a900473ffffffffffffffffffffffffffffffffffffffff1673ffffffffffffffffffffffffffffffffffffffff1663c2f05dc26040518163ffffffff167c0100000000000000000000000000000000000000000000000000000000028152600401600060405180830381600087803b1580156200026257600080fd5b505af115801562000277573d6000803e3d6000fd5b505050506040513d6000823e3d601f19601f820116820180604052506020811015620002a257600080fd5b810190808051640100000000811115620002bb57600080fd5b82810190506020810184811115620002d257600080fd5b8151856001820283011164010000000082111715620002f057600080fd5b50509291905050509050600160009054906101000a900473ffffffffffffffffffffffffffffffffffffffff1673ffffffffffffffffffffffffffffffffffffffff1663d3fc98643043846040518463ffffffff167c0100000000000000000000000000000000000000000000000000000000028152600401808473ffffffffffffffffffffffffffffffffffffffff1673ffffffffffffffffffffffffffffffffffffffff16815260200183815260200180602001828103825283818151815260200191508051906020019080838360005b83811015620003e0578082015181840152602081019050620003c3565b50505050905090810190601f1680156200040e5780820380516001836020036101000a031916815260200191505b50945050505050600060405180830381600087803b1580156200043057600080fd5b505af115801562000445573d6000803e3d6000fd5b50505050606060405190810160405280438152602001600354420181526020016200047e62000547640100000000026401000000009004565b8152506004600082015181600001556020820151816001015560408201518160020155905050437f421d5f21a68ededa288fdc8ab5a927b3aebac738c86c9c9699a51ccd706c437c826040518080602001828103825283818151815260200191508051906020019080838360005b8381101562000509578082015181840152602081019050620004ec565b50505050905090810190601f168015620005375780820380516001836020036101000a031916815260200191505b509250505060405180910390a250565b600064e8d4a51000905090565b604051611f158062000ff283390190565b610a7d80620005756000396000f300608060405260043610610083576000357c0100000000000000000000000000000000000000000000000000000000900463ffffffff1680630367968c1461008857806338af3eed146100df578063496a698d146101365780634e9e136d1461016f57806355d4169214610179578063635af9ad146101d0578063d92f20f4146101fb575b600080fd5b34801561009457600080fd5b5061009d610212565b604051808273ffffffffffffffffffffffffffffffffffffffff1673ffffffffffffffffffffffffffffffffffffffff16815260200191505060405180910390f35b3480156100eb57600080fd5b506100f4610237565b604051808273ffffffffffffffffffffffffffffffffffffffff1673ffffffffffffffffffffffffffffffffffffffff16815260200191505060405180910390f35b34801561014257600080fd5b5061014b61025d565b60405180848152602001838152602001828152602001935050505060405180910390f35b610177610275565b005b34801561018557600080fd5b5061018e610502565b604051808273ffffffffffffffffffffffffffffffffffffffff1673ffffffffffffffffffffffffffffffffffffffff16815260200191505060405180910390f35b3480156101dc57600080fd5b506101e5610528565b6040518082815260200191505060405180910390f35b34801561020757600080fd5b5061021061052e565b005b6000809054906101000a900473ffffffffffffffffffffffffffffffffffffffff1681565b600260009054906101000a900473ffffffffffffffffffffffffffffffffffffffff1681565b60048060000154908060010154908060020154905083565b6000806000600460000154925060008311151561029157600080fd5b426004600101541115156102a457600080fd5b6102b26004600201546106d8565b91508134101515156102c357600080fd5b600160009054906101000a900473ffffffffffffffffffffffffffffffffffffffff1673ffffffffffffffffffffffffffffffffffffffff166323b872dd3033866040518463ffffffff167c0100000000000000000000000000000000000000000000000000000000028152600401808473ffffffffffffffffffffffffffffffffffffffff1673ffffffffffffffffffffffffffffffffffffffff1681526020018373ffffffffffffffffffffffffffffffffffffffff1673ffffffffffffffffffffffffffffffffffffffff1681526020018281526020019350505050600060405180830381600087803b1580156103bc57600080fd5b505af11580156103d0573d6000803e3d6000fd5b50505050600460008082016000905560018201600090556002820160009055505081340390503373ffffffffffffffffffffffffffffffffffffffff166108fc829081150290604051600060405180830381858888f1935050505015801561043c573d6000803e3d6000fd5b50600260009054906101000a900473ffffffffffffffffffffffffffffffffffffffff1673ffffffffffffffffffffffffffffffffffffffff166108fc839081150290604051600060405180830381858888f193505050501580156104a5573d6000803e3d6000fd5b50823373ffffffffffffffffffffffffffffffffffffffff167f682553da668235675371295b1cda200992ebe5c26835d6f26b9658340f3b5f18846040518082815260200191505060405180910390a36104fd6106e2565b505050565b600160009054906101000a900473ffffffffffffffffffffffffffffffffffffffff1681565b60035481565b6000600460000154905060008111151561054757600080fd5b426004600101541115151561055b57600080fd5b600160009054906101000a900473ffffffffffffffffffffffffffffffffffffffff1673ffffffffffffffffffffffffffffffffffffffff166323b872dd3033846040518463ffffffff167c0100000000000000000000000000000000000000000000000000000000028152600401808473ffffffffffffffffffffffffffffffffffffffff1673ffffffffffffffffffffffffffffffffffffffff1681526020018373ffffffffffffffffffffffffffffffffffffffff1673ffffffffffffffffffffffffffffffffffffffff1681526020018281526020019350505050600060405180830381600087803b15801561065457600080fd5b505af1158015610668573d6000803e3d6000fd5b505050506004600080820160009055600182016000905560028201600090555050803373ffffffffffffffffffffffffffffffffffffffff167ff567a0a57233e406978940ccd12ded9982296245a1dcaeff95e906cd2988fb5c60405160405180910390a36106d56106e2565b50565b6000819050919050565b606060006004600001541415156106f857600080fd5b6000809054906101000a900473ffffffffffffffffffffffffffffffffffffffff1673ffffffffffffffffffffffffffffffffffffffff1663c2f05dc26040518163ffffffff167c0100000000000000000000000000000000000000000000000000000000028152600401600060405180830381600087803b15801561077d57600080fd5b505af1158015610791573d6000803e3d6000fd5b505050506040513d6000823e3d601f19601f8201168201806040525060208110156107bb57600080fd5b8101908080516401000000008111156107d357600080fd5b828101905060208101848111156107e957600080fd5b815185600182028301116401000000008211171561080657600080fd5b50509291905050509050600160009054906101000a900473ffffffffffffffffffffffffffffffffffffffff1673ffffffffffffffffffffffffffffffffffffffff1663d3fc98643043846040518463ffffffff167c0100000000000000000000000000000000000000000000000000000000028152600401808473ffffffffffffffffffffffffffffffffffffffff1673ffffffffffffffffffffffffffffffffffffffff16815260200183815260200180602001828103825283818151815260200191508051906020019080838360005b838110156108f45780820151818401526020810190506108d9565b50505050905090810190601f1680156109215780820380516001836020036101000a031916815260200191505b50945050505050600060405180830381600087803b15801561094257600080fd5b505af1158015610956573d6000803e3d6000fd5b505050506060604051908101604052804381526020016003544201815260200161097e610a44565b8152506004600082015181600001556020820151816001015560408201518160020155905050437f421d5f21a68ededa288fdc8ab5a927b3aebac738c86c9c9699a51ccd706c437c826040518080602001828103825283818151815260200191508051906020019080838360005b83811015610a075780820151818401526020810190506109ec565b50505050905090810190601f168015610a345780820380516001836020036101000a031916815260200191505b509250505060405180910390a250565b600064e8d4a510009050905600a165627a7a723058205ac85cca89ba8a92dbdc471a3406f17ddb31e081e34e1f9a32a6736bc31ce43c002960806040523480156200001157600080fd5b5060405162001f1538038062001f158339810180604052810190808051820192919060200180518201929190505050818181600490805190602001906200005a9291906200007e565b508060059080519060200190620000739291906200007e565b50505050506200012d565b828054600181600116156101000203166002900490600052602060002090601f016020900481019282601f10620000c157805160ff1916838001178555620000f2565b82800160010185558215620000f2579182015b82811115620000f1578251825591602001919060010190620000d4565b5b50905062000101919062000105565b5090565b6200012a91905b80821115620001265760008160009055506001016200010c565b5090565b90565b611dd8806200013d6000396000f3006080604052600436106100f1576000357c0100000000000000000000000000000000000000000000000000000000900463ffffffff16806306fdde03146100f6578063081812fc14610186578063095ea7b3146101f357806318160ddd1461024057806323b872dd1461026b5780632f745c59146102d857806342842e0e146103395780634f558e79146103a65780634f6ccce7146103eb5780636352211e1461042c57806370a082311461049957806395d89b41146104f0578063a22cb46514610580578063b88d4fde146105cf578063c87b56dd14610682578063d3fc986414610728578063e985e9c5146107bb575b600080fd5b34801561010257600080fd5b5061010b610836565b6040518080602001828103825283818151815260200191508051906020019080838360005b8381101561014b578082015181840152602081019050610130565b50505050905090810190601f1680156101785780820380516001836020036101000a031916815260200191505b509250505060405180910390f35b34801561019257600080fd5b506101b1600480360381019080803590602001909291905050506108d8565b604051808273ffffffffffffffffffffffffffffffffffffffff1673ffffffffffffffffffffffffffffffffffffffff16815260200191505060405180910390f35b3480156101ff57600080fd5b5061023e600480360381019080803573ffffffffffffffffffffffffffffffffffffffff16906020019092919080359060200190929190505050610915565b005b34801561024c57600080fd5b50610255610adb565b6040518082815260200191505060405180910390f35b34801561027757600080fd5b506102d6600480360381019080803573ffffffffffffffffffffffffffffffffffffffff169060200190929190803573ffffffffffffffffffffffffffffffffffffffff16906020019092919080359060200190929190505050610ae8565b005b3480156102e457600080fd5b50610323600480360381019080803573ffffffffffffffffffffffffffffffffffffffff16906020019092919080359060200190929190505050610bff565b6040518082815260200191505060405180910390f35b34801561034557600080fd5b506103a4600480360381019080803573ffffffffffffffffffffffffffffffffffffffff169060200190929190803573ffffffffffffffffffffffffffffffffffffffff16906020019092919080359060200190929190505050610c76565b005b3480156103b257600080fd5b506103d160048036038101908080359060200190929190505050610cae565b604051808215151515815260200191505060405180910390f35b3480156103f757600080fd5b5061041660048036038101908080359060200190929190505050610d1f565b6040518082815260200191505060405180910390f35b34801561043857600080fd5b5061045760048036038101908080359060200190929190505050610d57565b604051808273ffffffffffffffffffffffffffffffffffffffff1673ffffffffffffffffffffffffffffffffffffffff16815260200191505060405180910390f35b3480156104a557600080fd5b506104da600480360381019080803573ffffffffffffffffffffffffffffffffffffffff169060200190929190505050610dd4565b6040518082815260200191505060405180910390f35b3480156104fc57600080fd5b50610505610e58565b6040518080602001828103825283818151815260200191508051906020019080838360005b8381101561054557808201518184015260208101905061052a565b50505050905090810190601f1680156105725780820380516001836020036101000a031916815260200191505b509250505060405180910390f35b34801561058c57600080fd5b506105cd600480360381019080803573ffffffffffffffffffffffffffffffffffffffff169060200190929190803515159060200190929190505050610efa565b005b3480156105db57600080fd5b50610680600480360381019080803573ffffffffffffffffffffffffffffffffffffffff169060200190929190803573ffffffffffffffffffffffffffffffffffffffff16906020019092919080359060200190929190803590602001908201803590602001908080601f0160208091040260200160405190810160405280939291908181526020018383808284378201915050505050509192919290505050611036565b005b34801561068e57600080fd5b506106ad60048036038101908080359060200190929190505050611075565b6040518080602001828103825283818151815260200191508051906020019080838360005b838110156106ed5780820151818401526020810190506106d2565b50505050905090810190601f16801561071a5780820380516001836020036101000a031916815260200191505b509250505060405180910390f35b34801561073457600080fd5b506107b9600480360381019080803573ffffffffffffffffffffffffffffffffffffffff16906020019092919080359060200190929190803590602001908201803590602001908080601f016020809104026020016040519081016040528093929190818152602001838380828437820191505050505050919291929050505061113e565b005b3480156107c757600080fd5b5061081c600480360381019080803573ffffffffffffffffffffffffffffffffffffffff169060200190929190803573ffffffffffffffffffffffffffffffffffffffff169060200190929190505050611157565b604051808215151515815260200191505060405180910390f35b606060048054600181600116156101000203166002900480601f0160208091040260200160405190810160405280929190818152602001828054600181600116156101000203166002900480156108ce5780601f106108a3576101008083540402835291602001916108ce565b820191906000526020600020905b8154815290600101906020018083116108b157829003601f168201915b5050505050905090565b60006001600083815260200190815260200160002060009054906101000a900473ffffffffffffffffffffffffffffffffffffffff169050919050565b600061092082610d57565b90508073ffffffffffffffffffffffffffffffffffffffff168373ffffffffffffffffffffffffffffffffffffffff161415151561095d57600080fd5b8073ffffffffffffffffffffffffffffffffffffffff163373ffffffffffffffffffffffffffffffffffffffff16148061099d575061099c8133611157565b5b15156109a857600080fd5b600073ffffffffffffffffffffffffffffffffffffffff166109c9836108d8565b73ffffffffffffffffffffffffffffffffffffffff16141580610a195750600073ffffffffffffffffffffffffffffffffffffffff168373ffffffffffffffffffffffffffffffffffffffff1614155b15610ad657826001600084815260200190815260200160002060006101000a81548173ffffffffffffffffffffffffffffffffffffffff021916908373ffffffffffffffffffffffffffffffffffffffff1602179055508273ffffffffffffffffffffffffffffffffffffffff168173ffffffffffffffffffffffffffffffffffffffff167f8c5be1e5ebec7d5bd14f71427d1e84f3dd0314c0f7b2291e5b200ac8c7c3b925846040518082815260200191505060405180910390a35b505050565b6000600880549050905090565b80610af333826111eb565b1515610afe57600080fd5b600073ffffffffffffffffffffffffffffffffffffffff168473ffffffffffffffffffffffffffffffffffffffff1614151515610b3a57600080fd5b600073ffffffffffffffffffffffffffffffffffffffff168373ffffffffffffffffffffffffffffffffffffffff1614151515610b7657600080fd5b610b808483611280565b610b8a84836113e9565b610b948383611601565b8273ffffffffffffffffffffffffffffffffffffffff168473ffffffffffffffffffffffffffffffffffffffff167fddf252ad1be2c89b69c2b068fc378daa952ba7f163c4a11628f55a4df523b3ef846040518082815260200191505060405180910390a350505050565b6000610c0a83610dd4565b82101515610c1757600080fd5b600660008473ffffffffffffffffffffffffffffffffffffffff1673ffffffffffffffffffffffffffffffffffffffff16815260200190815260200160002082815481101515610c6357fe5b9060005260206000200154905092915050565b80610c8133826111eb565b1515610c8c57600080fd5b610ca88484846020604051908101604052806000815250611036565b50505050565b60008060008084815260200190815260200160002060009054906101000a900473ffffffffffffffffffffffffffffffffffffffff169050600073ffffffffffffffffffffffffffffffffffffffff168173ffffffffffffffffffffffffffffffffffffffff161415915050919050565b6000610d29610adb565b82101515610d3657600080fd5b600882815481101515610d4557fe5b90600052602060002001549050919050565b60008060008084815260200190815260200160002060009054906101000a900473ffffffffffffffffffffffffffffffffffffffff169050600073ffffffffffffffffffffffffffffffffffffffff168173ffffffffffffffffffffffffffffffffffffffff1614151515610dcb57600080fd5b80915050919050565b60008073ffffffffffffffffffffffffffffffffffffffff168273ffffffffffffffffffffffffffffffffffffffff1614151515610e1157600080fd5b600260008373ffffffffffffffffffffffffffffffffffffffff1673ffffffffffffffffffffffffffffffffffffffff168152602001908152602001600020549050919050565b606060058054600181600116156101000203166002900480601f016020809104026020016040519081016040528092919081815260200182805460018160011615610100020316600290048015610ef05780601f10610ec557610100808354040283529160200191610ef0565b820191906000526020600020905b815481529060010190602001808311610ed357829003601f168201915b5050505050905090565b3373ffffffffffffffffffffffffffffffffffffffff168273ffffffffffffffffffffffffffffffffffffffff1614151515610f3557600080fd5b80600360003373ffffffffffffffffffffffffffffffffffffffff1673ffffffffffffffffffffffffffffffffffffffff16815260200190815260200160002060008473ffffffffffffffffffffffffffffffffffffffff1673ffffffffffffffffffffffffffffffffffffffff16815260200190815260200160002060006101000a81548160ff0219169083151502179055508173ffffffffffffffffffffffffffffffffffffffff163373ffffffffffffffffffffffffffffffffffffffff167f17307eab39ab6107e8899845ad3d59bd9653f200f220920489ca2b5937696c3183604051808215151515815260200191505060405180910390a35050565b8161104133826111eb565b151561104c57600080fd5b611057858585610ae8565b611063858585856116d8565b151561106e57600080fd5b5050505050565b606061108082610cae565b151561108b57600080fd5b600a60008381526020019081526020016000208054600181600116156101000203166002900480601f0160208091040260200160405190810160405280929190818152602001828054600181600116156101000203166002900480156111325780601f1061110757610100808354040283529160200191611132565b820191906000526020600020905b81548152906001019060200180831161111557829003601f168201915b50505050509050919050565b61114883836118c6565b611152828261191d565b505050565b6000600360008473ffffffffffffffffffffffffffffffffffffffff1673ffffffffffffffffffffffffffffffffffffffff16815260200190815260200160002060008373ffffffffffffffffffffffffffffffffffffffff1673ffffffffffffffffffffffffffffffffffffffff16815260200190815260200160002060009054906101000a900460ff16905092915050565b6000806111f783610d57565b90508073ffffffffffffffffffffffffffffffffffffffff168473ffffffffffffffffffffffffffffffffffffffff16148061126657508373ffffffffffffffffffffffffffffffffffffffff1661124e846108d8565b73ffffffffffffffffffffffffffffffffffffffff16145b8061127757506112768185611157565b5b91505092915050565b8173ffffffffffffffffffffffffffffffffffffffff166112a082610d57565b73ffffffffffffffffffffffffffffffffffffffff161415156112c257600080fd5b600073ffffffffffffffffffffffffffffffffffffffff166001600083815260200190815260200160002060009054906101000a900473ffffffffffffffffffffffffffffffffffffffff1673ffffffffffffffffffffffffffffffffffffffff161415156113e55760006001600083815260200190815260200160002060006101000a81548173ffffffffffffffffffffffffffffffffffffffff021916908373ffffffffffffffffffffffffffffffffffffffff160217905550600073ffffffffffffffffffffffffffffffffffffffff168273ffffffffffffffffffffffffffffffffffffffff167f8c5be1e5ebec7d5bd14f71427d1e84f3dd0314c0f7b2291e5b200ac8c7c3b925836040518082815260200191505060405180910390a35b5050565b60008060006113f8858561195d565b600760008581526020019081526020016000205492506114646001600660008873ffffffffffffffffffffffffffffffffffffffff1673ffffffffffffffffffffffffffffffffffffffff16815260200190815260200160002080549050611a8b90919063ffffffff16565b9150600660008673ffffffffffffffffffffffffffffffffffffffff1673ffffffffffffffffffffffffffffffffffffffff168152602001908152602001600020828154811015156114b257fe5b9060005260206000200154905080600660008773ffffffffffffffffffffffffffffffffffffffff1673ffffffffffffffffffffffffffffffffffffffff1681526020019081526020016000208481548110151561150c57fe5b90600052602060002001819055506000600660008773ffffffffffffffffffffffffffffffffffffffff1673ffffffffffffffffffffffffffffffffffffffff1681526020019081526020016000208381548110151561156857fe5b9060005260206000200181905550600660008673ffffffffffffffffffffffffffffffffffffffff1673ffffffffffffffffffffffffffffffffffffffff1681526020019081526020016000208054809190600190036115c89190611cdb565b50600060076000868152602001908152602001600020819055508260076000838152602001908152602001600020819055505050505050565b600061160d8383611aa4565b600660008473ffffffffffffffffffffffffffffffffffffffff1673ffffffffffffffffffffffffffffffffffffffff168152602001908152602001600020805490509050600660008473ffffffffffffffffffffffffffffffffffffffff1673ffffffffffffffffffffffffffffffffffffffff168152602001908152602001600020829080600181540180825580915050906001820390600052602060002001600090919290919091505550806007600084815260200190815260200160002081905550505050565b6000806116fa8573ffffffffffffffffffffffffffffffffffffffff16611bfc565b151561170957600191506118bd565b8473ffffffffffffffffffffffffffffffffffffffff1663f0b9e5ba8786866040518463ffffffff167c0100000000000000000000000000000000000000000000000000000000028152600401808473ffffffffffffffffffffffffffffffffffffffff1673ffffffffffffffffffffffffffffffffffffffff16815260200183815260200180602001828103825283818151815260200191508051906020019080838360005b838110156117cb5780820151818401526020810190506117b0565b50505050905090810190601f1680156117f85780820380516001836020036101000a031916815260200191505b50945050505050602060405180830381600087803b15801561181957600080fd5b505af115801561182d573d6000803e3d6000fd5b505050506040513d602081101561184357600080fd5b8101908080519060200190929190505050905063f0b9e5ba7c0100000000000000000000000000000000000000000000000000000000027bffffffffffffffffffffffffffffffffffffffffffffffffffffffff1916817bffffffffffffffffffffffffffffffffffffffffffffffffffffffff19161491505b50949350505050565b6118d08282611c0f565b600880549050600960008381526020019081526020016000208190555060088190806001815401808255809150509060018203906000526020600020016000909192909190915055505050565b61192682610cae565b151561193157600080fd5b80600a60008481526020019081526020016000209080519060200190611958929190611d07565b505050565b8173ffffffffffffffffffffffffffffffffffffffff1661197d82610d57565b73ffffffffffffffffffffffffffffffffffffffff1614151561199f57600080fd5b6119f26001600260008573ffffffffffffffffffffffffffffffffffffffff1673ffffffffffffffffffffffffffffffffffffffff16815260200190815260200160002054611a8b90919063ffffffff16565b600260008473ffffffffffffffffffffffffffffffffffffffff1673ffffffffffffffffffffffffffffffffffffffff16815260200190815260200160002081905550600080600083815260200190815260200160002060006101000a81548173ffffffffffffffffffffffffffffffffffffffff021916908373ffffffffffffffffffffffffffffffffffffffff1602179055505050565b6000828211151515611a9957fe5b818303905092915050565b600073ffffffffffffffffffffffffffffffffffffffff1660008083815260200190815260200160002060009054906101000a900473ffffffffffffffffffffffffffffffffffffffff1673ffffffffffffffffffffffffffffffffffffffff16141515611b1157600080fd5b8160008083815260200190815260200160002060006101000a81548173ffffffffffffffffffffffffffffffffffffffff021916908373ffffffffffffffffffffffffffffffffffffffff160217905550611bb56001600260008573ffffffffffffffffffffffffffffffffffffffff1673ffffffffffffffffffffffffffffffffffffffff16815260200190815260200160002054611cbf90919063ffffffff16565b600260008473ffffffffffffffffffffffffffffffffffffffff1673ffffffffffffffffffffffffffffffffffffffff168152602001908152602001600020819055505050565b600080823b905060008111915050919050565b600073ffffffffffffffffffffffffffffffffffffffff168273ffffffffffffffffffffffffffffffffffffffff1614151515611c4b57600080fd5b611c558282611601565b8173ffffffffffffffffffffffffffffffffffffffff16600073ffffffffffffffffffffffffffffffffffffffff167fddf252ad1be2c89b69c2b068fc378daa952ba7f163c4a11628f55a4df523b3ef836040518082815260200191505060405180910390a35050565b60008183019050828110151515611cd257fe5b80905092915050565b815481835581811115611d0257818360005260206000209182019101611d019190611d87565b5b505050565b828054600181600116156101000203166002900490600052602060002090601f016020900481019282601f10611d4857805160ff1916838001178555611d76565b82800160010185558215611d76579182015b82811115611d75578251825591602001919060010190611d5a565b5b509050611d839190611d87565b5090565b611da991905b80821115611da5576000816000905550600101611d8d565b5090565b905600a165627a7a72305820622b601fcc489d861aa40352151786c271b7917aefb069633915aa8ce8a75cbf0029",
  "source": "pragma solidity ^0.4.24;\n\nimport \"./ArtonomousStaking.sol\";\nimport \"./ArtonomousArtPieceToken.sol\";\n\ncontract Artonomous {\n\n    event ArtonomousAuctionStarted(uint indexed blockNumber, string generatorHashUsed);\n    event ArtonomousArtBought(address indexed buyer, uint indexed blockNumber, uint price);\n    event ArtonomousArtClaimed(address indexed claimant, uint indexed blockNumber);\n\n    struct Auction {\n        uint blockNumber;\n        uint endTime;\n        uint startingPrice;\n    }\n\n    ArtonomousStaking public artonomousStaking;\n    ArtonomousArtPieceToken public pieceToken;\n    address public beneficiary; // receives ether gained from purchases\n\n    uint public AUCTION_LENGTH = 86400; // 24 hours\n    Auction public currentAuction;\n\n    constructor(address stakingAddr, address beneficiaryAddr) public {\n        artonomousStaking = ArtonomousStaking(stakingAddr);\n        pieceToken = new ArtonomousArtPieceToken(\"artonomous-token\", \"ARTO\");\n        beneficiary = beneficiaryAddr;\n        startAuction();\n    }\n\n    function startAuction() internal {\n        require(currentAuction.blockNumber == 0);\n        string memory currentGeneratorHash = artonomousStaking.currentGeneratorHash();\n        pieceToken.mint(this, block.number, currentGeneratorHash);\n        currentAuction = Auction({\n            blockNumber: block.number,\n            endTime: now + AUCTION_LENGTH,\n            startingPrice: getStartingPrice()\n        });\n        emit ArtonomousAuctionStarted(block.number, currentGeneratorHash);\n    }\n\n    // placeholder\n    function getStartingPrice() internal pure returns (uint) {\n        return 1000000000000;\n    }\n\n    function buyArt() external payable {\n        uint blockNumber = currentAuction.blockNumber;\n        require(blockNumber > 0);\n        require(currentAuction.endTime > now);\n\n        uint buyPrice = getBuyPrice(currentAuction.startingPrice);\n        require(msg.value >= buyPrice);\n\n\n        pieceToken.transferFrom(this, msg.sender, blockNumber);\n        delete currentAuction;\n\n        uint remainder = msg.value - buyPrice;\n        msg.sender.transfer(remainder); // refund extra\n        beneficiary.transfer(buyPrice); // pay Artonomous' beneficiary\n\n        emit ArtonomousArtBought(msg.sender, blockNumber, buyPrice);\n\n        startAuction();\n    }\n\n    // placeholder\n    function getBuyPrice(uint startingPrice) internal pure returns (uint) {\n        return startingPrice;\n    }\n\n    // after 24 hours, anyone can claim for free\n    function claimArt() external {\n        uint blockNumber = currentAuction.blockNumber;\n        require(blockNumber > 0);\n        require(currentAuction.endTime <= now);\n\n        pieceToken.transferFrom(this, msg.sender, blockNumber);\n        delete currentAuction;\n\n        emit ArtonomousArtClaimed(msg.sender, blockNumber);\n\n        startAuction();\n    }\n}\n",
  "sourcePath": "/Users/nickreynolds/Artonomous/artonomous/packages/contracts/contracts/Artonomous.sol",
  "compiler": {
    "name": "solc",
    "version": "0.4.24+commit.e67f0147.Emscripten.clang"
  },
  "schemaVersion": "2.0.0",
  "updatedAt": "2018-06-22T21:32:59.794Z"
}